:020000020000FC
:200000004810C06F0000000000000000000000000000000000000000000000000000000059
:20000800FC0101130011202300512223006124230071262300A1282300B12A2300C12C2381
:2000100000D12E2302E1202302F12223030124230311262303C1282303D12A2303E12C2345
:2000180003F12E2334202573341025F33430267318C000EF34151073000120830041228321
:200020000081230300C1238301012503014125830181260301C1268302012703024127836E
:200028000281280302C1288303012E0303412E8303812F0303C12F8304010113302000736A
:20003000FD0101130281262303010413FCA42E23FE042623FEC427830007851302C1240386
:200038000301011300008067FF0101130081262301010413001000730000001300C1240334
:200040000101011300008067FD01011302112623028124230301041300000013344027F3AF
:20004800FEF42023304027F3FEF42223FE042703FE44278300F777B30107D793FCF42A23BA
:20005000FC042E2300100793FCF42C23FD442703FD84278300F777B3060782630014C7B71B
:2000580031478713FDC427830037979300F707B30007A7030014C7B731478693FDC42783BA
:200060000037979300F687B30047A78300078513000700E700000013344027F3FEF4242317
:20006800304027F3FEF42623FE842703FEC4278300F777B30107D7930200006FFD8427836C
:2000700000179793FCF42C23FDC4278300178793FCF42E23F79FF06FFCF42A23FD442783F6
:20007800F60790E3000000130000001302C12083028124030301011300008067FD010113B1
:20008000021126230281242303010413FCA42E23FCB42C23FCC42A23FDC42703800007B7F9
:2000880000F777B3FEF42423FDC42703800007B7FFF7879300F777B3FEF42623FE8427833D
:2000900008078863FEC427030030079304F70063FEC427030070079306F712630014C7B748
:2000980024C7A78308078263000000130014C7B724C7A783FD442603FD842583FDC4250309
:2000A000000780E7000000130600006F0014C7B72487A78304078E63000000130014C7B742
:2000A8002487A783FD442603FD842583FDC42503000780E7000000130380006FFEC4270388
:2000B00000F0079302E7FA63E41FF0EF02C0006FFEC42503DEDFF0EF00050793020790632C
:2000B800E09FF0EF0180006F000000130100006F000000130080006F00000013FD84278317
:2000C0000007851302C12083028124030301011300008067F801011306112E2306812C2327
:2000C80007212A230731282308010413F8A42623F8B42423F8C42223FA0428230014C7B74C
:2000D0002D87A78318079063F8C42783FAF42223F884278300F05663F844278302F04A6333
:2000D8000014C7B72D87A783001787130014C7B72CE7AC230014C7B72D87A7030070079379
:2000E00002F767330014C7B72CE7AC2309D0006FFA0424231200006FF844270300100793DB
:2000E80000F71E63001457B76887A70368C7A783FEE42423FEF426230600006FF8442783AD
:2000F000FFF78713FA84278340F707B300078513600380EF0005091300058993F8442783AE
:2000F800FFF78793000785135E8380EF00050713000587930007061300078693000905134A
:2001000000098593281360EF0005071300058793FEE42423FEF42623001457B76907A60357
:200108006947A683FE842503FEC42583478370EF0005071300058793000705130007859345
:2001100051C380EF00050793F8F40FA3FA04262304C0006FF9F44703FA4427830017869346
:20011800FAD4222300E78023F9F44703FA44278300178693FAD4222300E78023F9F4470307
:20012000FA44278300178693FAD4222300E78023FAC4278300178793FAF42623FAC4270352
:20012800F8842783FAF748E3FA84278300178793FAF42423FA842703F8442783ECF74EE345
:2001300073C0006F0014C7B72D87A78328F050630014C7B72D87A7030030079326E7C863E0
:200138000014C7B72D87A7830030071300E78663003007130080006F0000001300800793B7
:20014000FAF42A23F8442703FB44278300F75C63F844278300F05863F8442783FAF42A23AD
:200148000440006FF844278300F05663F884278302F04A630014C7B72D87A783001787136F
:200150000014C7B72CE7AC230014C7B72D87A7030070079302F767330014C7B72CE7AC231A
:200158006C80006FF8842703FB44278302F70733000707930017979300E787B300078513C8
:20016000021100EF00050793FAF42E23FBC4278302079A630014C7B72D87A783001787130F
:200168000014C7B72CE7AC230014C7B72D87A7030070079302F767330014C7B72CE7AC2302
:200170006680006FFBC42783FAF42223FA0424230B40006FFA0426230940006F0014C7B7EE
:200178002D87A7030030079300F716630FF007130080006F00000713FA4427830017869395
:20018000FAD4222300E780230014C7B72D87A7030020079300F716630FF007130080006FA0
:2001880000000713FA44278300178693FAD4222300E780230014C7B72D87A70300100793EE
:2001900000F716630FF007130080006F00000713FA44278300178693FAD4222300E7802308
:20019800FAC4278300178793FAF42623FAC42703F8842783F6F744E3FA84278300178793FC
:2001A000FAF42423FA842703FB442783F4F744E3F8C42783FAF42223FA0424230980006F91
:2001A800FA842703FB44278300F707B3F844270300F75A63F8442703FA84278340F707B35C
:2001B0000080006FFB442783FCF42023FC04278304F05A63F8842703FC04278302F7073346
:2001B800000707930017979300E787B300078613FBC42583FA442503464120EFF88427037B
:2001C000FC04278302F70733000707930017979300E787B300078713FA44278300E787B395
:2001C800FAF42223FA842703FB44278300F707B3FAF42423FA842703F8442783F6F742E3CD
:2001D000FBC42503668100EF4B40006F0014C7B72D87A703003007932AE7D2630014C7B7C6
:2001D8002D87A7030050079328E7CA630014C7B72D87A7830040071300E78863005007137D
:2001E00000E78A6301C0006F00400793FAF428230100006F00800793FAF428230000001312
:2001E80000800793FAF42A23F8442703FB44278300F75C63F844278300F05863F844278326
:2001F000FAF42A230440006FF844278300F05663F884278302F04A630014C7B72D87A7833D
:2001F800001787130014C7B72CE7AC230014C7B72D87A7030070079302F767330014C7B7A3
:200200002CE7AC234240006FF8842703FB44278302F70733000707930017979300E787B346
:200208000007851357C100EF00050793FAF42E23FBC4278302079A630014C7B72D87A78373
:20021000001787130014C7B72CE7AC230014C7B72D87A7030070079302F767330014C7B78A
:200218002CE7AC233C40006FFBC42783FAF42223FA0424230C00006FFA0426230A00006FDD
:20022000FAC42703FB04278302F767B300078A63FA842703FB04278302F767B304079263C2
:20022800FA44278300178713FAE42223FFF0071300E78023FA44278300178713FAE42223AB
:20023000FFF0071300E78023FA44278300178713FAE42223FFF0071300E780230340006F1A
:20023800FA44278300178713FAE4222300078023FA44278300178713FAE4222300078023DA
:20024000FA44278300178713FAE4222300078023FAC4278300178793FAF42623FAC4270380
:20024800F8842783F4F74EE3FA84278300178793FAF42423FA842703FB442783F2F74EE31B
:20025000F8C42783FAF42223FA0424230980006FFA842703FB44278300F707B3F844270310
:2002580000F75A63F8442703FA84278340F707B30080006FFB442783FCF42223FC4427835C
:2002600004F05A63F8842703FC44278302F70733000707930017979300E787B30007861367
:20026800FBC42583FA4425031B4120EFF8842703FC44278302F70733000707930017979399
:2002700000E787B300078713FA44278300E787B3FAF42223FA842703FB44278300F707B32E
:20027800FAF42423FA842703F8442783F6F742E3FBC425033B8100EF2040006F0014C7B79E
:200280002D87A703006007931EF71A63F8C42783FAF42223F884278300F05663F844278326
:2002880002F04A630014C7B72D87A783001787130014C7B72CE7AC230014C7B72D87A70332
:200290000070079302F767330014C7B72CE7AC231D80006FF884278301F7D71300F707B378
:200298004017D793FCF42423F844278301F7D71300F707B34017D793FCF42623F884270335
:2002A000F844278300F75C63F884278301F7D71300F707B34017D7930140006FF844278392
:2002A80001F7D71300F707B34017D793FCF42823FD04278341F7D7130077771300F707B328
:2002B0004037D793FAF42C23FB8427830007966300100793FAF42C2300900793FCF42A2399
:2002B800FA04242310C0006FFA0426230EC0006FFAC42703FC84278340F707B3FCF42C23DC
:2002C000FA842703FCC4278340F707B3FCF42E23FDC4278341F7D793FDC4270300E7C73301
:2002C80040F70733FD84278341F7D693FD84278300F6C7B340D787B300F75463000787139E
:2002D000FEE42023FE042703FB84278302F747B3FEF42223FE442703FD44278302F7673380
:2002D800001457B74F078693000707930017979300E787B300F687B30007C703FAE4002370
:2002E0000017C703FAE400A30027C783FAF40123FA044703FA44278300178693FAD42223A6
:2002E80000E78023FA144703FA44278300178693FAD4222300E78023FA244703FA4427830F
:2002F00000178693FAD4222300E78023FAC4278300178793FAF42623FAC42703F884278343
:2002F800F0F748E3FA84278300178793FAF42423FA842703F8442783EEF748E30014C7B716
:200300002D87A783001787130014C7B72CE7AC230014C7B72D87A7030070079302F767334D
:200308000014C7B72CE7AC2307C1208307812403074129030701298308010113000080671B
:20031000FE01011300112E2300812C23020104130014C7B72B47A703FEE42623000007137B
:20031800FE042423FE84079300078593001457B750C7851311C110EFFE8427830007859354
:20032000001457B751078513761100EFFE842783000787130014C7B7FEC426832B47A783CF
:2003280000F6C7B30000069300078463515110EF0007051301C120830181240302010113D9
:2003300000008067FE01011300812E2302010413FE042223000807B7430787930007A78325
:20033800FEF42423FE8427830037F793FEF42623FEC427030030079306F70263FEC4270340
:200340000030079306E7C063FEC427030020079304F70063FEC427030020079304E7C46307
:20034800FEC4278300078A63FEC427030010079300F70A630300006F00500793FEF42223A8
:200350000240006F00300793FEF422230180006F00A00793FEF4222300C0006FFE04222304
:2003580000000013FE042223FE4427830007851301C124030201011300008067FC010113A8
:2003600002112E2302812C2304010413FCA42E23FCB42C23FCC42A23FCD42823FCE42623EA
:200368000014C7B72B47A703FEE4262300000713FE0401A3FD4427830007A023FE4407934B
:20037000FCC42703FD04268300078613FD842583FDC425037C90A0EF00050793FEF401A357
:20037800FE3447830017C7930FF7F79300078A63001457B75187851378D100EF0900006F32
:20038000FE44278300079A63001457B753878513775100EF0780006F00100793FEF401A3EC
:20038800FE442703FD44278300E7A023FE44278300078593001457B7560785135AD100EF18
:20039000FE04242303C0006FFE842703000707930087979340E787B3FDC4270300F707B3D7
:2003980000078613FE842583001457B758878513579100EFFE84278300178793FEF4242375
:2003A000FE442783FE842703FCF740E3FE344783000787130014C7B7FEC426832B47A78359
:2003A80000F6C7B30000069300078463315110EF0007051303C12083038124030401011373
:2003B00000008067BD0101134211262342812423429122234321202341312E2343010413F1
:2003B800FFFFA2B7005101330014C7B72B47A703FCE42E2300000713FFFFA7B7FE078793D5
:2003C000008787B3FFF00713C0E7A223FFFFA7B7FE078793008787B350000713C0E7A623D1
:2003C800FFFFA7B7FE078793008787B32D000713C0E7A823FFFFA7B7FE078793008787B3E4
:2003D000C007A423FFFFA7B7FE078793008787B304000737C4E7AC23FFFFA7B7FE0787930C
:2003D800008787B304384737C4E7AE23FFFFA7B7C2078793FE078793008787B3000805B72B
:2003E000000785133500B0EFFFFFA7B7FE078793008787B3C587A583FFFFA7B7FE0787935F
:2003E800008787B3C5C7A603FFFFA7B7FE078793008787B3C087A7830FF7F693FFFFA7B767
:2003F000C2078793FE078793008785332D0007935000071318D0B0EFFFFFA7B7C2078793B5
:2003F800FE078793008787B3000785134180B0EFFFFFA7B7FE078793008787B3064007136A
:20040000C0E7AA23FFFFA7B7BFC78793FE07879300878633FFFFA7B7FE078793008787B3D1
:20040800FFFFA737C6070713FE070713008705332D00071350000693C147A583D41FF0EF01
:200410000005079300078713FFFFA7B7FE078793008787B3BEE78DA3FFFFA7B7FE07879300
:20041800008787B3C007A023FFFFA7B7FE078793008784B3C51FF0EFC0A4AC230014C7B7B8
:200420002687A70326C7A783000706930014C7B72607A703FFFFA7B7FE078793008787B309
:20042800C187A78302F70733FFFFA7B7FE078793008787B300E68733C0E7AE23FFFFA7B75F
:20043000FE07879300878733FFFFA7B7FE078793008787B3C1872703C047A78304F700630F
:20043800FFFFA7B7FE078793008787B3FFFFA737FE07071300870733C1872703C0E7A223CE
:20044000FFFFA7B7FE078793008787B3C047A583001457B7594785132D1100EFFFFFA7B74E
:20044800FE078793008787B3C087A78300079663001007930080006F00000793FFFFA73734
:20045000FE07071300870733C0F72423FFFFA7B7FE078793008787B3BFB7C7830C078E63AE
:20045800FFFFA7B7FE078793008787B3BFC7A7830CF05463FFFFA7B7C6078793FE07879383
:20046000008786B3FFFFA7B7FE078793008787B3C007A703000707930087979340E787B35C
:2004680000F68533FFFFA7B7FE07879300878733FFFFA7B7FE078793008787B3C087A7835D
:200470000027979300F707B3C587A7832D00069350000613000785935190A0EFFFFFA7B7DA
:20047800FE078793008787B3FFFFA737FE07071300870733C007270300170713C0E7A0233C
:20048000FFFFA7B7FE078793008787B3BFC7A783FFFFA737FE07071300870733C0072703C3
:2004880004F74863FFFFA7B7FE078793008787B3C007A02303C0006FFFFFA7B7FE0787933B
:2004900000878733FFFFA7B7FE078793008787B3C087A7830027979300F707B3C587A783E6
:200498002D00061350000593000785138A8FF0EFFFFFA7B7FE07879300878733FFFFA7B767
:2004A000FE078793008787B3C087A7830027979300F707B3C587A783002A35B700078513BE
:2004A80029D0B0EFFFFFA7B7FE078793008787B3C087A7830FF7F713FFFFA7B7C2078793A0
:2004B000FE078793008787B300070593000785131110B0EF00C0006F001005136810B0EFE0
:2004B8000014C7B72687A70326C7A783FFFFA6B7FE068693008686B3C1C6A683000689139B
:2004C0000000099300100693000985930007861302B66063000985930007861300C598631A
:2004C800000906130007079300C7E463000006930FF6F793FA0792E3D31FF06F00050493B8
:2004D000FFFFA7B7C2078793FE078793008787B3000785130340B0EF000487130014C7B73C
:2004D800FDC426832B47A78300F6C7B3000006930007846364C110EF000705133293E0EF30
:2004E000B10101134E1126234E8124234F0104130014C7B72B47A703FEE42623000007131E
:2004E800B0040FA3001457B75EC787930007A6830047A703F6D42E23F8E420230087D70371
:2004F000F8E4122300A7C783F8F40323D4C4071300000613001457B75B0785930007051352
:2004F800568030EF00050793B2F42023B20427830C079663F7C40713B2440793001006136D
:20050000000705930007851367C030EF00050793B2F42023B204278300078E63F7C4079322
:2005080000078593001457B75B4785137BC100EF0780006F00100793B0F40FA3F7C40793E2
:2005100000078593001457B75D07851379C100EF0180006FF884079300078593001457B71E
:200518005E478513784100EFB2440713F8840793000706130640059300078513409050EF0C
:200520000005079300F037B30FF7F793FC0794E3001457B75E8785130ED100EFB24407933B
:2005280000078513604040EF00000613001457B75B07859300000513490030EFB1F44783A1
:20053000000787130014C7B7FEC426832B47A78300F6C7B300000693000784634E4110EFEC
:20053800000705134EC120834E8124034F01011300008067B7010113481126234881242313
:20054000490104130014C7B72B47A703FEE4262300000713B60409A3746977B72577879320
:20054800FEF42023655427B706578793FEF42223002177B747378793FEF42423001457B7D7
:20055000634787930007A6830047A703FCD42A23FCE42C230087D703FCE41E2300A7C783E7
:20055800FCF40F23DA44071300000613001457B75B078593000705133D0030EF000507935A
:20056000B6F42C23B78427830E079863FD440713B7C4079300A00613000705930007851326
:200568004E4030EF00050793B6F42C23B784278300078E63FD44079300078593001457B735
:200570005F878513624100EF09C0006FFE0407930007851372C110EF00050613B744069304
:20057800FE040713B7C4079300070593000785135C5030EF00050793B6F42C23B7842783AC
:2005800000078E63FD44079300078593001457B7618785135D4100EF0400006FB7C40793B2
:20058800000785132A4040EF00050793B6F42C23B784278302079263FE0407930007851365
:200590006C0110EF00050713B744278300F7166300100793B6F409A3B7C4079300078513F7
:20059800448040EF00000613001457B75B078593000005132D4030EFB734478300078713A1
:2005A0000014C7B7FEC426832B47A78300F6C7B30000069300078463328110EF00070513DA
:2005A80048C12083488124034901011300008067DB010113241126232481242325010413BB
:2005B0000014C7B72B47A703FEE4262300000713001457B7640785136AC100EF56C070EF84
:2005B800DBC4071300000613001457B75B07859300070513254030EF00050793DAF42C2356
:2005C000DB84278300078A63001457B766478513674100EF0080006FFACFF0EF00000793EF
:2005C800000787130014C7B7FEC426832B47A78300F6C7B30000069300078463284110EF7A
:2005D0000007051324C12083248124032501011300008067FD01011302112623028124233F
:2005D8000301041300050793FCF40FA3FDF447830020071304E784630020071304F74A63FE
:2005E000020780630010071304E79463074070EF00050793FEF42623FEB447830380006F15
:2005E8006B5060EF00050793FEF42623FEC42783FEF405A3FEB4478301C0006F0DC070EF31
:2005F00000050793FEF42623FEB447830080006F001007930007851302C12083028124034D
:2005F8000301011300008067FD01011302112623028124230301041300050793FCF40FA350
:20060000FE0405A3FDF447830020071304E784630020071304F74A63020780630010071371
:2006080004E794637FD060EF00050793FEF42623FEB447830380006F63D060EF00050793E9
:20061000FEF42623FEC42783FEF405A3FEB4478301C0006F064070EF00050793FEF426235E
:20061800FEB447830080006F001007930007851302C12083028124030301011300008067FF
:20062000FD01011302112623028124230301041300050793FCB42C23FCC42A23FCD42823A1
:20062800FCF40FA3FDF447830020071306E780630020071306F74C63020786630010071349
:2006300006E79663FD042603FD442583FD842503771060EF00050793FEF42423FEC42783EE
:200638000500006FFD042603FD442583FD8425035D1060EF00050793FEF42423FE842783B2
:20064000FEF42623FEC427830280006FFD042603FD442583FD8425037C1060EF00050793CC
:20064800FEF42423FEC427830080006F004007930007851302C1208302812403030101135D
:2006500000008067FD01011302112623028124230301041300050793FCB42C23FCC42A23A5
:20065800FCD42823FCF40FA3FDF447830020071306E780630020071306F74C630207866328
:200660000010071306E79663FD042603FD442583FD8425036D9060EF00050793FEF424238A
:20066800FEC427830500006FFD042603FD442583FD8425035AD060EF00050793FEF4242385
:20067000FE842783FEF42623FEC427830280006FFD042603FD442583FD842503729060EF99
:2006780000050793FEF42423FEC427830080006F004007930007851302C1208302812403A6
:200680000301011300008067FD01011302812623030104130005079300058713FCC42C2315
:20068800FCF40FA300070793FCF40F23FDF447830020071302E784630020071302F744634E
:2006900000078A630010071300E79E63FEC427830180006FFEC427830100006FFEC42783A0
:200698000080006F004007930007851302C124030301011300008067FD0101130281262313
:2006A00003010413FCA42E23FDC42783001787930007C783FEF41723FEE4178300879793E8
:2006A8000107971341075713FDC427830007C783010797934107D79300F767B301079793EB
:2006B0004107D793FEF41723FEE457830007851302C124030301011300008067FD010113F6
:2006B8000281262303010413FCA42E23FDC42783003787930007C783FEF42623FEC4278396
:2006C00000879793FDC42703002707130007470300E7E7B3FEF42623FEC427830087979313
:2006C800FDC42703001707130007470300E7E7B3FEF42623FEC4278300879793FDC42703E1
:2006D0000007470300E7E7B3FEF42623FEC427830007851302C12403030101130000806709
:2006D800FE01011300812E2302010413FEA4262300058793FEF41523FEC4278300178713B2
:2006E000FEE42623FEA457030FF7771300E78023FEA457830087D793FEF41523FEC42783B6
:2006E80000178713FEE42623FEA457030FF7771300E780230000001301C1240302010113ED
:2006F00000008067FE01011300812E2302010413FEA42623FEB42423FEC427830017871303
:2006F800FEE42623FE8427030FF7771300E78023FE8427830087D793FEF42423FEC427832F
:2007000000178713FEE42623FE8427030FF7771300E78023FE8427830087D793FEF42423E1
:20070800FEC4278300178713FEE42623FE8427030FF7771300E78023FE8427830087D793A6
:20071000FEF42423FEC4278300178713FEE42623FE8427030FF7771300E78023000000136F
:2007180001C124030201011300008067FE01011300812E230201041300050793FEF407A3A0
:2007200008100793FEF4470302F76C6309F00793FEF4470300E7E663001007930280006F69
:200728000E000793FEF4470300F76C630FC00793FEF4470300E7E663001007930080006F99
:20073000000007930007851301C124030201011300008067FE01011300812E23020104138A
:2007380000050793FEF407A304000793FEF4470304F76C6307E00793FEF4470300E7E663D5
:20074000001007930480006F08000793FEF4470300F76C630FC00793FEF4470300E7E66383
:20074800001007930280006F00000713FEF4478300E7EC6300000713FEF4478300F7666354
:20075000001007930080006F000007930007851301C124030201011300008067FD010113BE
:20075800021126230281242303010413FCA42E23FE042623FDC427830047C7830A07846310
:20076000FDC427830017C703FDC4278303078593FDC4278302C7A7830010069300078613F9
:2007680000070513BA1FF0EF0005079306079863FDC4278300078223FDC4278302C7A703FE
:20077000FDC427830207A78340F70733FDC427830187A78304F77863FDC427830037C703FB
:200778000020079304F71063FDC427830017C503FDC4278303078593FDC4278302C7A70384
:20078000FDC427830187A78300F707B30010069300078613B31FF0EF00C0006F00100793B8
:20078800FEF42623FEC427830007851302C12083028124030301011300008067FD010113EA
:20079000021126230281242303010413FCA42E23FCB42C23FE042623FDC4278302C7A7836F
:20079800FD84270306F70063FDC42503EF1FF0EFFEA42623FEC4278304079663FDC427839A
:2007A0000017C703FDC427830307879300100693FD84260300078593000705139E5FF0EF5C
:2007A8000005079300078A63FFF00793FCF42C2300100793FEF42623FDC42783FD842703DB
:2007B00002E7A623FEC427830007851302C12083028124030301011300008067FD0101134B
:2007B800021126230281242303010413FCA42E23FDC42503E69FF0EFFEA42623FEC427834B
:2007C00012079C63FDC427830007C7030030079310F71063FDC427830057C703001007934B
:2007C8000EF71863FDC4278303078793200006130000059300078513349100EFFDC4278373
:2007D000030787931FE787130000B7B7A557859300070513C0DFF0EFFDC427830307871317
:2007D800416157B72527859300070513C59FF0EFFDC42783030787931E478713614177B72D
:2007E0002727859300070513C3DFF0EFFDC42783030787931E878713FDC427830107A78388
:2007E8000007859300070513C1DFF0EFFDC42783030787931EC78713FDC4278300C7A783CA
:2007F0000007859300070513BFDFF0EFFDC4278301C7A78300178713FDC4278302E7A62303
:2007F800FDC427830017C703FDC4278303078593FDC4278302C7A783001006930007861361
:2008000000070513941FF0EFFDC42783000782A3FDC427830017C783000006130000059313
:20080800000785139E5FF0EF000507930007866300100793FEF42623FEC4278300078513D6
:2008100002C12083028124030301011300008067FE01011300812E2302010413FEA42623CF
:20081800FEB42423FE842783FFE78793FEF42423FEC427830147A783FFE78793FE842703D8
:2008200000F76663000007930240006FFEC427830287A703FEC4278300A7D7830007869381
:20082800FE84278302F687B300F707B30007851301C124030201011300008067FD01011309
:20083000021126230281242303010413FCA42E23FCB42C23FDC427830007A783FEF42223A4
:20083800FD8427030010079300E7FA63FE4427830147A783FD84270300F768630010079392
:20084000FEF420231F40006FFFF00793FEF42023FE4427830007C7830030071314E78A6368
:20084800003007131AF746630010071300E78863002007130EE784631980006FFD84278347
:20085000FEF42423FE8427830017D793FE84270300F707B3FEF42423FE4427830207A7036D
:20085800FE8427830097D79300F707B300078593FE442503CC9FF0EF000507931607906320
:20086000FE84278300178713FEE424231FF7F793FE44270300F707B30307C783FEF4262326
:20086800FE4427830207A703FE8427830097D79300F707B300078593FE442503C81FF0EFA4
:200870000005079312079063FE8427831FF7F793FE44270300F707B30307C78300879793CF
:20087800FEC4270300F767B3FEF42623FD8427830017F79300078863FEC427830047D7934D
:200880000140006FFEC42703000017B7FFF7879300F777B3FEF420230E00006FFE4427831F
:200888000207A703FD8427830087D79300F707B300078593FE442503C05FF0EF00050793AA
:200890000A079663FE44278303078713FD842783001797931FE7F79300F707B30007851362
:20089800819FF0EF00050793FEF4202308C0006FFE4427830207A703FD8427830077D7938B
:2008A00000F707B300078593FE442503BB1FF0EF0005079306079063FE4427830307871316
:2008A800FD842783002797931FC7F79300F707B300078513829FF0EF00050713100007B707
:2008B000FFF7879300F777B3FEF4202302C0006F00100793FEF420230200006F000000132E
:2008B8000180006F000000130100006F000000130080006F00000013FE042783000785134D
:2008C00002C12083028124030301011300008067FD010113021126230281242302912223F9
:2008C80003010413FCA42E23FCB42C23FCC42A2300200793FEF42223FD84270300100793B2
:2008D00030E7F263FDC427830147A783FD8427032EF77A63FDC427830007C783003007130C
:2008D80022E78263003007132CF74E630010071300E78863002007131AE780632C80006FBF
:2008E000FD842783FEF42423FE8427830017D793FE84270300F707B3FEF42423FDC42783E6
:2008E8000207A703FE8427830097D79300F707B300078593FDC42503A85FF0EFFEA422238A
:2008F000FE44278326079263FDC4278303078713FE84278300178693FED424231FF7F793B6
:2008F80000F707B3FEF42623FD8427830017F79304078663FEC427830007C78301879793C5
:200900004187D79300F7F7930187971341875713FD442783018797934187D7930047979380
:20090800018797934187D79300F767B3018797934187D7930FF7F79300C0006FFD4427834C
:200910000FF7F793FEC4270300F70023FDC427830010071300E78223FDC427830207A703F2
:20091800FE8427830097D79300F707B300078593FDC425039C9FF0EFFEA42223FE442783EC
:200920001A079863FDC4278303078713FE8427831FF7F79300F707B3FEF42623FD842783A9
:200928000017F79300078A63FD4427830047D7930FF7F79304C0006FFEC427830007C783FE
:20093000018797934187D793FF07F7930187971341875713FD4427830087D7930187979341
:200938004187D79300F7F793018797934187D79300F767B3018797934187D7930FF7F79383
:20094000FEC4270300F70023FDC427830010071300E782231300006FFDC427830207A703D0
:20094800FD8427830087D79300F707B300078593FDC42503909FF0EFFEA42223FE442783D9
:200950000E079C63FDC4278303078713FD842783001797931FE7F79300F707B3FD4427034C
:2009580001071713010757130007059300078513DF0FF0EFFDC427830010071300E78223AF
:200960000C40006FFDC427830207A703FD8427830077D79300F707B300078593FDC42503D9
:2009680089DFF0EFFEA42223FE44278308079A63FD442703100007B7FFF7879300F774B3E2
:20097000FDC4278303078713FD842783002797931FC7F79300F707B300078513D00FF0EF5E
:2009780000050713F00007B700F777B300F4E7B3FCF42A23FDC4278303078713FD8427836C
:20098000002797931FC7F79300F707B3FD44258300078513DB0FF0EFFDC4278300100713FF
:2009880000E782230200006F000000130180006F000000130100006F000000130080006FCA
:2009900000000013FE4427830007851302C1208302812403024124830301011300008067B0
:20099800FD010113021126230281242303010413FCA42E23FCB42C23FCC42A23FE042223A8
:2009A000FDC427830007A783FEF42423FD8427030010079300E7FA63FE8427830147A7832B
:2009A800FD84270300F76663002007930FC0006FFD44278302078463FFF00613FD44258300
:2009B000FE842503C4DFF0EFFEA42223FE44278300078663FE4427830D00006FFD842583A7
:2009B800FDC425039D9FF0EFFEA42623FEC427830A078863FEC427030010079300F71663C2
:2009C000002007930A40006FFEC42703FFF0079300F71663001007930900006F0000061384
:2009C800FD842583FE842503BE9FF0EFFEA42223FE44278300078663FE44278306C0006F1C
:2009D000FE8427830107A703FE8427830147A783FFE7879302F77863FE8427830107A78359
:2009D80000178713FE84278300E7A823FE8427830057C7830017E7930FF7F713FE842783D6
:2009E00000E782A3FEC42783FCF42C23FE8427830147A783FD842703F4F762E30080006FD8
:2009E80000000013000007930007851302C12083028124030301011300008067FC01011383
:2009F00002112E2302812C2304010413FCA42623FCB42423FCC427830007A783FEF42423E1
:2009F800FC84278302079A63FE84278300C7A783FEF42023FE04278300078A63FE84278391
:200A00000147A783FE04270306F7646300100793FEF4202305C0006FFC842583FCC4250351
:200A080089DFF0EFFEA42623FEC427030010079300E7E663001007932380006FFEC427032E
:200A1000FFF0079300F71663FEC427832240006FFE8427830147A783FEC4270300F7766336
:200A1800FEC4278320C0006FFC842783FEF42023FE8427830107A7830007966300000793AC
:200A20001F00006FFC042E23FE042703FC84278308F71A63FE04278300178793FCF42E23E7
:200A2800FE8427830147A783FDC4270300F7666300200793FCF42E23FDC42583FCC4250319
:200A3000FFCFF0EFFEA42623FEC427030010079300F70863FEC42703FFF0079300F7166331
:200A3800FEC4278318C0006FFEC4278302078C63FE84278300C7A783FEF42623FEC4270343
:200A40000010079300E7FE63FE8427830147A783FEC4270300F77663FEC42783FEF42023A9
:200A4800FC042E23FDC4278308079A63FE042783FCF42E23FDC4278300178793FCF42E23FC
:200A5000FE8427830147A783FDC4270302F7606300200793FCF42E23FDC42703FE042783AF
:200A580000E7F663000007931080006FFDC42583FCC42503F48FF0EFFEA42623FEC427839B
:200A600002078C63FEC427030010079300F70863FEC42703FFF0079300F71663FEC4278335
:200A68000D00006FFDC42703FE042783F8F714E3000007930BC0006F00000013FFF0061386
:200A7000FDC42583FE842503949FF0EFFEA42223FE44278302079063FC84278300078C6352
:200A7800FDC42603FC842583FE842503925FF0EFFEA42223FE44278304079C63FE842783C9
:200A8000FDC4270300E7A623FE8427830107A703FE8427830147A783FFE7879300E7EC6309
:200A8800FE8427830107A783FFF78713FE84278300E7A823FE8427830057C7830017E79324
:200A90000FF7F713FE84278300E782A30200006FFE4427030010079300F71663FFF007937E
:200A98000080006F00100793FCF42E23FDC427830007851303C1208303812403040101132F
:200AA00000008067FD010113021126230281242303010413FCA42E23FCB42C23FDC4250323
:200AA800ABCFF0EF0005079300078663001007930C00006FFD842583FDC42503D94FF0EF08
:200AB000FEA42223FDC42783FE44270302E7A623FDC4278303078793200006130000059356
:200AB8000007851379D0F0EFFDC4278303078793FEF4242300100793FEF42623FE04202365
:200AC0000140006FFE042703FEC4278300F707B3FEF42023FDC4278300A7D78300078713DB
:200AC800FE04278302E7F863FDC427830017C503FE442703FE04278300F707B3FEC42683A0
:200AD00000078613FE842583DFDFE0EF00050793FA078AE3FDC4278300A7D7830007871395
:200AD800FE04278340E787B300F037B30FF7F7930007851302C120830281240303010113C0
:200AE00000008067FD010113021126230281242303010413FCA42E23FCB42C23FDC4278361
:200AE8000007A783FEF42423FD842703002007B700F77863FD84278301F7F793000786638C
:200AF000002007931680006FFDC42783FD84270300E7A823FDC427830087A783FEF422230C
:200AF800FE44278302079063FE8427830007C7030020079300E7F863FE8427830247A7835E
:200B0000FEF42223FE44278302079A63FD8427830057D793FE8427030087570300E7E66303
:200B0800002007931080006FFE8427830247A703FDC4278300E7AC230980006FFE842783B0
:200B100000A7D78300979793FEF426230600006FFDC42783FE44258300078513C60FF0EFAB
:200B1800FEA42223FE442703FFF0079300F71663001007930B80006FFE44270300100793B7
:200B200000E7FA63FE8427830147A783FE44270300F76663002007930940006FFD8427038A
:200B2800FEC4278340F707B3FCF42C23FD842703FEC42783F8F77EE3FE442583FE84250316
:200B3000B90FF0EF00050713FDC4278300E7AC23FDC42783FE44270300E7AA23FDC42783C8
:200B38000187A78300079663002007930400006FFDC427830187A703FD8427830097D793F5
:200B400000F70733FDC4278300E7AC23FE84278303078713FD8427831FF7F79300F7073377
:200B4800FDC4278300E7AE23000007930007851302C1208302812403030101130000806722
:200B5000FD010113021126230281242303010413FCA42E23FCB42C23FDC427830007A783A6
:200B5800FEF42423FDC427830107A78302078793FEF42623FEC42703002007B700F76663BF
:200B6000FDC427830007AC23FDC427830187A783000796630040079319C0006FFEC4278389
:200B68001FF7F79316079263FDC427830187A78300178713FDC4278300E7AC23FDC4278361
:200B70000147A78302079463FEC427830057D793FE8427030087570312E7E863FDC427838A
:200B78000007AC230040079314C0006FFEC427830097D793FE84270300A75703FFF7071340
:200B800000E7F7B310079263FDC42703FDC427830147A7830007859300070513AA0FF0EF1A
:200B8800FEA42223FE4427030010079300E7E663002007931000006FFE442703FFF00793F2
:200B900000F71663001007930EC0006FFE8427830147A783FE44270308F76663FD842783F1
:200B980000079A63FDC427830007AC23004007930C40006FFDC42703FDC427830147A7839B
:200BA0000007859300070513935FF0EFFEA42223FE44278300079663007007930980006F51
:200BA800FE4427030010079300F71663002007930840006FFE442703FFF0079300F71663D1
:200BB000001007930700006FFE442583FE842503BB5FF0EF0005079300078663001007933F
:200BB8000540006FFDC42783FE44270300E7AA23FE442583FE842503958FF0EF0005071328
:200BC000FDC4278300E7AC23FDC42783FEC4270300E7A823FE84278303078713FEC42783AF
:200BC8001FF7F79300F70733FDC4278300E7AE23000007930007851302C1208302812403D0
:200BD0000301011300008067FD010113021126230281242303010413FCA42E23FCB42C23C3
:200BD800FDC427830007A783FEF4262300000593FDC42503C11FF0EFFEA42223FE44278313
:200BE00008079663FE042423FDC427830187A78300078593FEC42503EA5FE0EFFEA422237F
:200BE800FE44278306079263FDC4278301C7A7830007C7030E50079300F70A63FDC427830A
:200BF00001C7A7830007C78302079063FE84278300178793FEF42423FE842703FD84278339
:200BF80000F716630280006FFE04242300100593FDC42503D4DFF0EFFEA42223FE4427833D
:200C0000F80784E30080006F00000013FE4427030040079300F7166300700793FEF4222375
:200C0800FE4427830007851302C12083028124030301011300008067FD01011302112623C4
:200C10000281242303010413FCA42E23FCB42C23FD84278301A7879300078513A1DFE0EF14
:200C180000050793FEF42623FDC427830007C7030030079302F71463FD84278301478793DF
:200C2000000785139F5FE0EF0005079301079793FEC4270300F767B3FEF42623FEC42783D3
:200C28000007851302C12083028124030301011300008067FE01011300112E2300812C23B9
:200C300002010413FEA42623FEB42423FEC42223FE84278301A78793FE4427030107171313
:200C3800010757130007059300078513A75FE0EFFEC427830007C7030030079302F71463A0
:200C4000FE84278301478713FE4427830107D793010797930107D793000785930007051346
:200C4800A41FE0EF0000001301C12083018124030201011300008067FD010113021126236D
:200C50000281242303010413FCA42E23FCB42C2300400793FEF42423FDC427830007A78300
:200C5800FEF426230C80006FFDC427830187A78300078593FEC42503CC5FE0EFFEA424233D
:200C6000FE8427830A079C63FDC4278301C7A7830007C783FEF40323FE6447830007986344
:200C680000400793FEF424230A80006FFDC4278301C7A78300B787930007C78303F7F7935D
:200C7000FEF403A3FDC42783FE74470300E78323FE6447030E50079302F70E63FE6447035E
:200C780002E0079302F70863FE74470300F0079302F70263FE744783FDF7F793FF8787937E
:200C80000017B7930FF7F79300078713FD84278302E78A6300000593FDC42503B25FF0EF50
:200C8800FEA42423FE84278302079263FDC427830187A783F2079AE30180006F00000013A3
:200C90000100006F000000130080006F00000013FE84278300078663FDC427830007AC2362
:200C9800FE8427830007851302C12083028124030301011300008067FD01011302112623F4
:200CA0000281242303010413FCA42E23FDC427830007A783FEF4262300000593FDC4250306
:200CA8008E5FF0EFFEA42423FE84278300078663FE8427830D40006FFDC427830187A78356
:200CB00000078593FEC42503B75FE0EFFEA42423FE8427830A079263FDC4278301C7A783BE
:200CB8000007C783FEF403A3FE7447830007986300400793FEF4242308C0006FFDC4278340
:200CC00001C7A78300B787930007C78303F7F7930FF7F713FDC4278300E78323FDC4278309
:200CC80001C7A78300B787930007C7830087F79302079663FDC4278301C7A703FDC427839D
:200CD0000207879300B0061300078593000705131700F0EF000507930207846300000593BD
:200CD800FDC425039DDFF0EFFEA42423FE842783F40784E30100006F000000130080006FCF
:200CE00000000013FE8427830007851302C12083028124030301011300008067FD010113F5
:200CE800021126230281242303010413FCA42E23FDC427830007A783FEF42623001005933B
:200CF000FDC42503B85FF0EFFEA42423FE84278306079463FDC427830187A78300078593B0
:200CF800FEC42503A59FE0EFFEA42423FE84278304079463FDC4278301C7A7830200061350
:200D000000000593000785136780F0EFFDC4278301C7A703FDC427830207879300B00613A2
:200D080000078593000705137340F0EFFEC427830010071300E78223FE842783000785130E
:200D100002C12083028124030301011300008067FD01011302112623028124230301041361
:200D1800FCA42E23FDC427830007A783FEF42423FDC427830187A78300078593FE8425030F
:200D20009BDFE0EFFEA42623FEC4278302079063FDC4278301C7A783FE50071300E78023C8
:200D2800FE8427830010071300E78223FEC427830007851302C12083028124030301011396
:200D300000008067FD010113021126230281242303010413FCA42E23FCB42C23FD8427834E
:200D3800000784A3FDC427830187A78314078463FE042623FEC42783FEF424230900006FE6
:200D4000FDC4278301C7A703FE84278300178693FED4242300F707B30007C783FEF403A3A7
:200D4800FE7447030200079306F70063FE7447030050079300F71663FE500793FEF403A33D
:200D5000FE8427030090079302F71063FEC4278300178713FEE42623FD84270300F707B39D
:200D580002E0071300E784A3FEC4278300178713FEE42623FD84270300F707B3FE74470311
:200D600000E784A30080006F00000013FE84270300A00793F6E7F6E3FD842703FEC42783B0
:200D680000F707B3000784A3FDC4278301C7A78300B787930007C78303F7F7930FF7F71379
:200D7000FD84278300E78423FDC4278301C7A78301C7879300078513D04FE0EF00050713BF
:200D7800FD84278300E7A023FDC4278301C7A7830167879300078513C80FE0EF00050793C3
:200D800000078713FD84278300E79323FDC4278301C7A7830187879300078513C5CFE0EFE9
:200D88000005079300078713FD84278300E792230080006F0000001302C120830281240332
:200D90000301011300008067FD010113021126230281242303010413FCA42E23FDC4278395
:200D98000007A78300178693FDC4270300D720230007C783FEF42623FEC4270306000793BD
:200DA00000E7FE63FEC4270307A0079300E7E863FEC42783FE078793FEF42623FEC427835A
:200DA8000FF7F79300078513DC4FE0EF0005079304078863FDC427830007A7830007C78380
:200DB00000078513E10FE0EF0005079302078663FEC4278300879713FDC427830007A783FB
:200DB80000178613FDC4268300C6A0230007C78300F767B30080006F00000793FEF4262352
:200DC000FEC427830007851302C12083028124030301011300008067FC01011302112E2384
:200DC80002812C2304010413FCA42623FCB42423FCC42223FCD420230014C7B72B47A70377
:200DD000FEE426230000071302C0006FFC84079300078513EF5FF0EF000507930007966308
:200DD800000007931700006FFC442783FFF78793FCF42223FC4427830FF7F793FC0798E3B4
:200DE000FCC427830007C78300079A63FC442783000786630010079313C0006FFCC4278304
:200DE800FCF42C23FC842783FCF42E23FD8427830007C70303F0079300F70A63FD84278329
:200DF0000007C70302A007930AF71663FC04278300079663000007930FC0006FFE04222393
:200DF800FD84278300178713FCE42C230007C70303F0079300F71A63FE44278300178793E1
:200E0000FEF422230100006FFE4427831007E793FEF42223FD8427830007C70303F00793EE
:200E0800FCF700E3FD8427830007C70302A00793FAF708E3FD842703FDC42583FC04278322
:200E1000FFF7879300078693FE44260300070513EC9FF0EF00050793000786630010079365
:200E18000740006FFDC427830007C783FEF420230440006FFD84079300078513DCDFF0EF0C
:200E2000FEA42423FDC4079300078513DBDFF0EFFEA42023FE842703FE04278300F71A6385
:200E2800FE842783F00794E3001007930280006F00000013FC84079300078513D8DFF0EF13
:200E3000FC44278300078663FE042783EC0798E300000793000787130014C7B7FEC4268376
:200E38002B47A78300F6C7B300000693000784630D00F0EF0007051303C1208303812403EA
:200E40000401011300008067FC01011302112E2302812C2304010413FCA42623FCB424234F
:200E4800FC8427830007A783FEF42423FCC4278302078793FEF4262300B0061302000593CB
:200E5000FEC4250313C0F0EFFE042223FE442783FEF4202300800793FCF42E23FE04278377
:200E580000178713FEE42023FE84270300F707B30007C783FCF40D23FDA44703020007934F
:200E60001AE7F663FDA4470302F0079302F70063FDA4470305C0079304F714630100006F19
:200E6800FE04278300178793FEF42023FE842703FE04278300F707B30007C70302F00793F2
:200E7000FEF700E3FE842703FE04278300F707B30007C70305C00793FCF704E31540006FB3
:200E7800FDA4470302E0079300F70863FE442703FDC4278302F76C63FDC4270300B00793BD
:200E800000F70863FDA4470302E0079300F706630060079319C0006F00800793FEF4222396
:200E880000B00793FCF42E231000006FFDA4478300078513A38FE0EF0005079308078463A0
:200E9000FE04278300178713FEE42023FE84270300F707B30007C783FCF40DA3FDB44783F7
:200E980000078513A70FE0EF0005079300078A63FDC42783FFF78793FE44270300F76663DC
:200EA0000060079312C0006FFE44278300178713FEE42223FEC4270300F707B3FDA44703AB
:200EA80000E78023FE44278300178713FEE42223FEC4270300F707B3FDB4470300E78023BA
:200EB000E9DFF06FFDA4478300078593001457B76A4785132690E0EF0005079300078663F2
:200EB800006007930CC0006FFDA447030600079300E7FE63FDA4470307A0079300E7E863B4
:200EC000FDA44783FE078793FCF40D23FE44278300178713FEE42223FEC4270300F707B307
:200EC800FDA4470300E78023E35FF06F00000013FE842703FE04278300F70733FC8427832E
:200ED00000E7A023FE44278300079663006007930600006FFEC427830007C7030E500793C8
:200ED80000F71863FEC427830050071300E78023FDA447030200079300E7FE63FE842703AD
:200EE000FE04278300F707B30007C7030200079300E7E663004007930080006F0000079395
:200EE800FEC4270300B7071300F70023000007930007851303C120830381240304010113AF
:200EF00000008067FD010113021126230281242303010413FCA42E23FCB42C23FDC427834D
:200EF8000007A783FEF426230100006FFD84278300178793FCF42C23FD8427830007C70367
:200F000002F00793FEF704E3FD8427830007C70305C00793FCF70CE3FDC427830007A423F3
:200F0800FD8427830007C70301F0079302E7E263FDC42783F800071302E785A300000593EE
:200F1000FDC42503F41FE0EFFEA424230D40006FFD84079300078593FDC42503CADFF0EFA6
:200F1800FEA42423FE8427830A079263FDC42503E08FF0EFFEA42423FDC4278302B7C78310
:200F2000FEF403A3FE84278302078463FE8427030040079308F71063FE7447830047F793F8
:200F280006079A6300500793FEF424230680006FFE7447830047F79306079263FDC427830D
:200F30000067C7830107F7930007986300500793FEF4242304C0006FFEC4278303078713F6
:200F3800FDC427830107A7831FF7F79300F707B300078593FEC42503B40FF0EF00050713E1
:200F4000FDC4278300E7A423F49FF06F000000130100006F000000130080006F00000013EE
:200F4800FE8427830007851302C12083028124030301011300008067FC01011302812E23CA
:200F500004010413FCA42623FFF00793FEF42423FCC427830007A783FEF42623FEC4278378
:200F5800FEF42023FEC4278300079663FE8427830B00006FFE04278300178713FEE42023B0
:200F60000007C783FCF40FA3FDF447030200079300E7F863FDF4470303A00793FCF71CE3FB
:200F6800FDF4470303A0079306F7186300100793FEF42223FEC427830007C70302F00793CF
:200F700002E7FA63FEC427830007C7030390079302E7E263FEC4278300278793FE042703AA
:200F780000F71A63FEC427830007C783FD078793FEF42223FE44278300F04C63FE4427835C
:200F8000FEF42423FCC42783FE04270300E7A023FE84278300C0006FFE042423FE84278308
:200F88000007851303C124030401011300008067FD0101130211262302812423030104136C
:200F9000FCA42E23FCB42C23FDC4278300078223FDC42783FFF0071302E7A623FD842583EB
:200F9800FDC42503FD9FD0EF0005079300078663004007931D00006FFDC427830307879371
:200FA0001FE7879300078513BF1FD0EF00050793FEF41623FDC427830307C783FEF405A3B2
:200FA800FEB447030EB0079300F70E63FEB447030E90079300F70863FEB447030E800793B3
:200FB00016F71463FEC457030000B7B7A557879302F71A63FDC42783030787930527871332
:200FB80000800613001457B76B478593000705135D00E0EF00050793000796630000079310
:200FC0001440006FFDC427830307879300B7879300078513B65FD0EF00050793FEF41723B0
:200FC800FDC4278303D7C783FEF405A3FEE45703FEE45783FFF7879300F777B30E079663A9
:200FD000FEE457031FF007930EE7F063FEE45703200007930CE7EA63FEB447830C07866326
:200FD800FEB44703FEB44783FFF7879300F777B30A079C63FDC427830307879300E78793B0
:200FE00000078513AF5FD0EF0005079308078E63FDC427830407C783FFF7871300100793EC
:200FE80008E7E463FDC42783030787930117879300078513AC5FD0EF0005079306078663F4
:200FF000FDC42783030787930137879300078513AA9FD0EF000507930007871307F0079388
:200FF80002E7E263FDC42783030787930207879300078513AE9FD0EF00050713000107B770
:2010000002F76463FDC42783030787930167879300078513A65FD0EF00050793000786630D
:20100800000007930200006FFEC457030000B7B7A557879300F71663002007930080006F04
:20101000003007930007851302C12083028124030301011300008067FC01011302112E23D3
:2010180002812C2304010413FCA42623FCB424230014C7B72B47A703FEE4262300000713F7
:2010200000000593FCC42503DA9FF0EFFCA42C23FD8427030020079302F70063FD8427037D
:201028000020079300E7E663FC84278300079663FD8427830F00006FFC042A230480006FAB
:20103000FCC4278303078713FD442783004797931C67879300F707B300078513A01FD0EFCB
:2010380000050713FD44278300279793FF078793008787B3FEE7A623FD4427830017879392
:20104000FCF42A23FD44270300300793FAE7FAE3FC84278300078863FC842783FFF787930A
:201048000080006F00000793FCF42A23FD44278300279793FF078793008787B3FEC7A783B6
:2010500002078663FD44278300279793FF078793008787B3FEC7A78300078593FCC425037B
:20105800CD1FF0EF000507930080006F00300793FCF42C23FC84278302079463FD84270341
:201060000010079300E7FE63FD44278300178793FCF42A23FD44270300300793F8E7F8E336
:20106800FD842783000787130014C7B7FEC426832B47A78300F6C7B300000693000784630C
:201070000010E0EF0007051303C12083038124030401011300008067FB01011304112623E2
:201078000481242305010413FAA42E23FAB42C2300060793FAF40BA3FB8427830007A02354
:20108000FBC42503B35FF0EFFCA42E23FDC427830007D66300B007936640006F0014C7B7EB
:20108800FDC42703002717132DC7879300F707B30007A783FEF42023FE042783000796633B
:2010900000C007936380006FFB842783FE04270300E7A023FB744783FFE7F793FAF40BA350
:20109800FE0427830007C78304078663FE0427830017C78300078513CDCFD0EF00050793A1
:2010A000FCF404A3FC9447830017F79302079463FB74478300078C63FC9447830047F79344
:2010A8000007866300A007935D40006F000007935CC0006FFE04278300078023FE042783CB
:2010B0000017C78300078513D20FD0EF00050793FCF404A3FC9447830017F793000786635F
:2010B800003007935980006FFB74478300078C63FC9447830047F7930007866300A0079382
:2010C00057C0006F00000593FE042503D4DFF0EFFCA42C23FD8427030040079300F7166352
:2010C800001007935580006FFD8427030010079300E7F66300D007935440006FFE0427836C
:2010D00002C7A783FEF42223FE0427830307879300B7879300078513F20FD0EF0005079337
:2010D800000787132000079300F7066300D0079350C0006FFE042783030787930167879302
:2010E00000078513EF4FD0EF00050793FCF42823FD04278300079E63FE04278303078793F7
:2010E8000247879300078513F34FD0EFFCA42823FE042783FD04270300E7AC23FE042783C1
:2010F0000407C703FE04278300E781A3FE0427830037C7030010079300F70E63FE042783E9
:2010F8000037C7030020079300F7066300D0079348C0006FFE0427830037C783000787130E
:20110000FD04278302E787B3FCF42823FE04278303D7C78300078713FE04278300E795230A
:20110800FE04278300A7D78302078263FE04278300A7D78300078713FE04278300A7D78331
:20111000FFF7879300F777B30007866300D0079342C0006FFE0427830307879301178793C1
:2011180000078513E14FD0EF0005079300078713FE04278300E79423FE0427830087D78312
:2011200000F7F793010797930107D7930007866300D007933E80006FFE0427830307879333
:201128000137879300078513DD0FD0EF00050793FCF42623FCC4278300079E63FE04278315
:20113000030787930207879300078513E10FD0EFFCA42623FE0427830307879300E7879350
:2011380000078513D94FD0EF00050793FCF41523FCA457830007966300D007933800006FBF
:20114000FCA45703FD04278300F707B3FE04270300875703004757130107171301075713D7
:2011480000E787B3FEF42423FCC42703FE84278300F7766300D007933440006FFCC4270310
:20115000FE84278340F707B3FE04270300A7570302E7D7B3FEF42623FEC42783000796631B
:2011580000D007933180006FFC042C23FEC42703100007B7FF57879300E7E663003007937A
:20116000FCF42C23FEC42703000107B7FF57879300E7E66300200793FCF42C23FEC4270300
:20116800000017B7FF57879300E7E66300100793FCF42C23FD8427830007966300D007937B
:201170002BC0006FFEC4278300278713FE04278300E7AA23FE042783FE44270300E7AE23A8
:20117800FCA45703FE44278300F70733FE04278302E7A023FE442703FE84278300F707331F
:20118000FE04278302E7A423FD8427030030079306F71863FE0427830307879302A7879373
:2011880000078513C54FD0EF000507930007866300D007932480006FFE0427830087D7833C
:201190000007866300D007932340006FFE0427830307879302C7879300078513C80FD0EF2B
:2011980000050713FE04278302E7A223FE0427830147A78300279793FCF42A230780006F1C
:2011A000FE0427830087D7830007966300D007931EC0006FFE0427830207A703FD042783E1
:2011A80000F70733FE04278302E7A223FD8427030020079300F71A63FE0427830147A783A5
:2011B0000017979302C0006FFE0427830147A703000707930017979300E787B30017D7130B
:2011B800FE0427830147A7830017F79300F707B3FCF42A23FE0427830187A703FD442783A1
:2011C0001FF787930097D79300F7766300D0079316C0006FFE042783FFF0071300E7A823F8
:2011C800FE0427830107A703FE04278300E7A623FE042783F800071300E782A3FD842703D8
:2011D000003007930EF71C63FE042783030787930307879300078513B20FD0EF00050793FF
:2011D80000078713001007930CF71A63FE4427830017879300078593FE042503EC0FD0EF0C
:2011E000000507930A079C63FE042783000782A3FE042783030787931FE7879300078513D9
:2011E800AD8FD0EF00050793000787130000B7B7A557879308F71463FE04278303078793E2
:2011F00000078513B18FD0EF00050713416157B72527879306F71463FE04278303078793C8
:2011F8001E47879300078513AF4FD0EF00050713614177B72727879304F71263FE04278389
:20120000030787931E87879300078513AD0FD0EF00050713FE04278300E7A823FE042783A8
:20120800030787931EC7879300078513AB0FD0EF00050713FE04278300E7A623FD842783E5
:201210000FF7F713FE04278300E780230014C7B72E07D78300178793010797130107571302
:201218000014C7B72EE790230014C7B72E07D703FE04278300E79323000007930007851339
:2012200004C12083048124030501011300008067FD01011302112623028124230301041346
:20122800FCA42E23FCB42C2300900793FEF42623FDC4278304078E63FDC427830007A7834E
:2012300004078863FDC427830007A7830007C78304078063FDC427830047D703FDC42783D6
:201238000007A7830067D78302F71463FDC427830007A7830017C78300078513E59FC0EF65
:20124000000507930017F79300079463FE042623FEC4278300079863FDC427830007A783FB
:201248000080006F00000793FD84270300F72023FEC427830007851302C1208302812403FD
:201250000301011300008067FC01011302112E2302812C2304010413FCA42623FCB424233C
:2012580000060793FCF403A30014C7B72B47A703FEE4262300000713FC842783FCF42E23E2
:20126000FDC4079300078513BB0FF0EFFEA42023FE0427830007D66300B007930B40006FF6
:201268000014C7B7FE042703002717132DC7879300F707B30007A783FEF42223FE44278344
:20127000020782630014C7B7FE042703002717132DC7879300F707B30007A023FE442783EC
:2012780000078023FCC4278302078C63FCC42783FE0427030FF7771300E780A3FCC42783B0
:2012800000078023FCC427030014C7B7FE042683002696932DC7879300F687B300E7A02346
:20128800FC74478300079663000007930240006FFCC40713FC840793000006130007059315
:2012900000078513F94FF0EFFEA42423FE842783000787130014C7B7FEC426832B47A78329
:2012980000F6C7B300000693000784637550D0EF0007051303C12083038124030401011371
:2012A00000008067F801011306112E2306812C2308010413F8A42623F8B424230006079364
:2012A800F8F403A30014C7B72B47A703FEE4262300000713F8C42783000796630090079311
:2012B00045C0006FF874478303F7F793F8F403A3F8744683F9C40713F8840793000686139D
:2012B8000007059300078513EF0FF0EFFAA42023FA04278340079A63F9C42783FAF42E2388
:2012C000F8842703FBC4079300070593000785138B4FF0EFFAA42023FA04278300079E6387
:2012C800FE744783018797934187D7930007D66300600793FAF42023F874478301C7F793F3
:2012D00016078263FA04278302078863FA0427030040079300F71A63FBC4079300078513F2
:2012D80083DFE0EFFAA42023F87447830087E793F8F403A30300006FFC2447830117F7931D
:2012E0000007886300700793FAF420230180006FF87447830047F7930007866300800793C0
:2012E800FAF42023FA04278312079E63F87447830087F79312078863219030EFFAA42623F1
:2012F000FD84278300E78793FAC4258300078513FF5FC0EFFD84278301678793FAC425838D
:2012F80000078513FE1FC0EFF9C42783FD8427030007059300078513C40FE0EFFAA4282390
:20130000FD84278300B787930200071300E78023F9C42783FD842703000006130007059361
:2013080000078513C90FE0EFFD84278301C787930000059300078513F8DFC0EFF9C427834E
:201310000010071300E78223FB04278308078C63F9C4278302C7A783FAF42A23FBC4079372
:2013180000000613FB042583000785139F5FD0EFFAA42023FA04278306079663F9C42783A3
:20132000FB442583000785139B4FD0EFFAA42023F9C42783FB042703FFF7071300E7A6234D
:201328000440006FFA04278302079E63FC2447830107F7930007886300400793FAF42023C7
:201330000240006FF87447830027F79300078C63FC2447830017F79300078663007007938A
:20133800FAF42023FA04278302079C63F87447830087F79300078863F87447830407E793C0
:20134000F8F403A3F9C4278302C7A703F8C4278302E7A023FD842703F8C4278302E7A22350
:20134800FA0427831E079263F9C42783FD8427030007059300078513B00FE0EF00050713C6
:20135000F8C4278300E7A423FD84278301C7879300078513D89FC0EF00050713F8C4278312
:2013580000E7A623F9C42703F8C4278300E7A023F9C427830067D703F8C4278300E7922324
:20136000F8C42783F874470300E78823F8C42783000788A3F8C427830007AE23F8C4278383
:201368000007AA23F8C42783028787932000061300000593000785134C90D0EFF874478347
:201370000207F79314078263F8C4278300C7A78312078C63F8C4278300C7A703F8C427832E
:2013780000E7AA23F9C4278300A7D78300979793FAF42C23F8C427830087A783FAF42223F1
:20138000F8C4278300C7A783FAF424230500006FF8C42783FA44258300078513AA0FD0EFEA
:20138800FAA42223FA4427030010079300E7E66300200793FAF42023FA442703FFF0079344
:2013900000F7166300100793FAF42023FA842703FB84278340F707B3FAF42423FA04278353
:2013980000079863FA842703FB842783FAE7E2E3F8C42783FA44270300E7AC23FA04278390
:2013A00008079463FA8427831FF7F79306078E63F9C42783FA442583000785139B4FD0EFCC
:2013A800FAA42A23FB4427830007986300200793FAF420230540006FFA8427830097D71307
:2013B000FB44278300F70733F8C4278300E7AE23F9C427830017C703F8C427830287859396
:2013B800F8C4278301C7A78300100693000786130007051398DFC0EF0005079300078663A0
:2013C00000100793FAF42023FA04278300078663F8C427830007A023FA0427830007871321
:2013C8000014C7B7FEC426832B47A78300F6C7B300000693000784632890D0EF00070513DF
:2013D00007C12083078124030801011300008067FB01011304112623048124230501041388
:2013D800FAA42E23FAB42C23FAC42A23FAD428230014C7B72B47A703FEE4262300000713F2
:2013E000FB842783FCF42E23FB0427830007A023FBC42783FC8407130007059300078513CF
:2013E8008F1FF0EFFCA42623FCC4278300079C63FBC427830117C783FCF42623FCC4278391
:2013F00000078663FCC427833B80006FFBC427830107C7830017F7930007966300700793F3
:2013F8003A00006FFBC4278300C7A703FBC427830147A78340F707B3FEF42023FB442703E8
:20140000FE04278336E7F863FE042783FAF42A233640006FFBC427830147A7831FF7F79361
:201408002A079863FBC427830147A7830097D793FC84270300A75703FFF7071300E7F7B370
:20141000FEF42223FE44278308079463FBC427830147A78300079A63FBC427830087A7839A
:20141800FCF428230200006FFBC42703FBC427830187A7830007859300070513840FD0EF74
:20142000FCA42823FD0427030010079300E7EC63FBC427830020071300E788A30020079347
:201428002E00006FFD042703FFF0079300F71C63FBC427830010071300E788A3001007938E
:201430002C00006FFBC42783FD04270300E7AC23FC842703FBC427830187A78300078593D3
:2014380000070513F6DFC0EFFEA42423FE84278300079C63FBC427830020071300E788A321
:201440000020079327C0006FFE842703FE44278300F707B3FEF42423FB4427830097D79310
:20144800FCF42C23FD8427830C078E63FE442703FD84278300F707B3FC84270300A7570323
:2014500000F77E63FC84278300A7D78300078713FE44278340F707B3FCF42C23FC84278392
:201458000017C783FD842683FE842603FDC4258300078513F0CFC0EF0005079300078C6333
:20146000FBC427830010071300E788A3001007931F00006FFBC427830107C7830187979322
:201468004187D7930407D863FBC4278301C7A703FE84278340F707B3FD84270302E7FC6301
:20147000FBC4278301C7A703FE84278340F707B300979793FDC4270300F70733FBC427831E
:201478000287879320000613000785930007051316D0D0EFFD84278300979793FCF42A236C
:201480001240006FFBC4278301C7A783FE8427030AF70A63FBC427830107C78301879793A9
:201488004187D7930607D063FC8427830017C703FBC4278302878593FBC4278301C7A78362
:20149000001006930007861300070513EF8FC0EF0005079300078C63FBC42783001007137F
:2014980000E788A3001007931180006FFBC427830107C78307F7F7930FF7F713FBC42783BC
:2014A00000E78823FC8427830017C703FBC427830287879300100693FE8426030007859310
:2014A80000070513DDCFC0EF0005079300078C63FBC427830010071300E788A300100793C6
:2014B0000C00006FFBC42783FE84270300E7AE23FBC427830147A7831FF7F793200007131F
:2014B80040F707B3FCF42A23FD442703FB44278300E7F663FB442783FCF42A23FBC42783C3
:2014C00002878713FBC427830147A7831FF7F79300F707B3FD44260300078593FDC425034B
:2014C80003D0D0EFFB442703FD44278340F707B3FAF42A23FB0427830007A703FD442783AD
:2014D00000F70733FB04278300E7A023FDC42703FD44278300F707B3FCF42E23FBC4278347
:2014D8000147A703FD44278300F70733FBC4278300E7AA23FB442783C8079EE300000793F6
:2014E000000787130014C7B7FEC426832B47A78300F6C7B300000693000784636240D0EF5A
:2014E8000007051304C12083048124030501011300008067FB010113041126230481242376
:2014F00005010413FAA42E23FAB42C23FAC42A23FAD428230014C7B72B47A703FEE42623D6
:2014F80000000713FB842783FEF42023FB0427830007A023FBC42783FCC407130007059307
:2015000000078513C8CFF0EFFCA42823FD04278300079C63FBC427830117C783FCF4282314
:20150800FD04278300078663FD0427834680006FFBC427830107C7830027F79300079663DC
:20151000007007934500006FFBC427830147A703FB44278300F70733FBC427830147A783AD
:2015180040F77463FBC427830147A783FFF7C793FAF42A233F40006FFBC427830147A78376
:201520001FF7F79330079263FBC427830147A7830097D793FCC4270300A75703FFF7071308
:2015280000E7F7B3FEF42223FE4427830C079263FBC427830147A78302079863FBC427839F
:201530000087A783FCF42A23FD44278302079C63FBC427830000059300078513AE0FD0EF9E
:20153800FCA42A230200006FFBC42703FBC427830187A7830007859300070513AC0FD0EF79
:20154000FCA42A23FD44278336078663FD4427030010079300F71C63FBC42783002007135F
:2015480000E788A30020079336C0006FFD442703FFF0079300F71C63FBC427830010071355
:2015500000E788A30010079334C0006FFBC42783FD44270300E7AC23FBC427830087A783B8
:2015580000079863FBC42783FD44270300E7A423FBC427830107C783018797934187D79350
:201560000607D063FCC427830017C703FBC4278302878593FBC4278301C7A78300100693D2
:201568000007861300070513B9CFC0EF0005079300078C63FBC427830010071300E788A333
:20157000001007932D00006FFBC427830107C78307F7F7930FF7F713FBC4278300E78823C7
:20157800FCC42703FBC427830187A7830007859300070513A5DFC0EFFEA42423FE842783C8
:2015800000079C63FBC427830020071300E788A3002007932800006FFE842703FE442783A7
:2015880000F707B3FEF42423FB4427830097D793FCF42E23FDC427830E078063FE4427035F
:20159000FDC4278300F707B3FCC4270300A7570300F77E63FCC4278300A7D7830007871350
:20159800FE44278340F707B3FCF42E23FCC427830017C783FDC42683FE842603FE0425838B
:2015A00000078513AC0FC0EF0005079300078C63FBC427830010071300E788A3001007933E
:2015A8001F40006FFBC4278301C7A703FE84278340F707B3FDC4270304E7F863FBC42783C3
:2015B00002878693FBC4278301C7A703FE84278340F707B300979793FE04270300F707B3E3
:2015B8002000061300078593000685134700D0EFFBC427830107C78307F7F7930FF7F713C4
:2015C000FBC4278300E78823FDC4278300979793FCF42C230E00006FFBC4278301C7A783CD
:2015C800FE84270304F70C63FBC427830147A703FBC4278300C7A78304F77263FCC42783FE
:2015D0000017C703FBC427830287879300100693FE8426030007859300070513924FC0EFEC
:2015D8000005079300078C63FBC427830010071300E788A30010079311C0006FFBC4278366
:2015E000FE84270300E7AE23FBC427830147A7831FF7F7932000071340F707B3FCF42C23A2
:2015E800FD842703FB44278300E7F663FB442783FCF42C23FBC4278302878713FBC42783F2
:2015F0000147A7831FF7F79300F707B3FD842603FE042583000785133840D0EFFBC4278385
:2015F8000107C783F807E7930FF7F713FBC4278300E78823FB442703FD84278340F707B378
:20160000FAF42A23FB0427830007A703FD84278300F70733FB04278300E7A023FE0427035A
:20160800FD84278300F707B3FEF42023FBC427830147A703FD84278300F70733FBC4278391
:2016100000E7AA23FBC4278300C7A683FBC427830147A7030006879300E7F4630007079353
:20161800FBC4270300F72623FB442783C00796E30080006F00000013FBC427830107C783A3
:201620000407E7930FF7F713FBC4278300E7882300000793000787130014C7B7FEC42683E2
:201628002B47A78300F6C7B300000693000784631100D0EF0007051304C12083048124030C
:201630000501011300008067FC01011302112E2302812C2304010413FCA426230014C7B7BB
:201638002B47A703FEE4262300000713FCC42783FDC407130007059300078513F95FE0EF87
:20164000FEA42023FE04278316079463FCC427830107C7830407F79314078C63FCC4278320
:201648000107C783018797934187D7930407DA63FDC427830017C703FCC4278302878593AD
:20165000FCC4278301C7A783001006930007861300070513FF1FB0EF00050793000786636A
:20165800001007931100006FFCC427830107C78307F7F7930FF7F713FCC4278300E78823F8
:20166000451020EFFEA42223FDC42703FCC427830207A7830007859300070513CA0FC0EFD1
:20166800FEA42023FE0427830C079463FCC427830247A783FEF42423FE84278300B78793B4
:201670000007C703FE84278300B78793020767130FF7771300E78023FCC427830007A703D4
:20167800FCC427830087A78300078613FE84258300070513EC0FD0EFFE84278301C7871306
:20168000FCC4278300C7A78300078593000705139B4FC0EFFE84278301678793FE44258380
:20168800000785139A0FC0EFFE842783012787930000059300078513928FC0EFFDC427836B
:201690000010071300E78223FDC4278300078513C8CFC0EFFEA42023FCC427830107C78393
:20169800FBF7F7930FF7F713FCC4278300E78823FE042783000787130014C7B7FEC4268360
:2016A0002B47A78300F6C7B300000693000784637310C0EF0007051303C120830381240334
:2016A8000401011300008067FD010113021126230281242303010413FCA42E230014C7B74C
:2016B0002B47A703FEE4262300000713FDC42503DF9FF0EFFEA42423FE842783020796635C
:2016B800FDC42783FE4407130007059300078513DA1FE0EFFEA42423FE8427830007966330
:2016C000FDC427830007A023FE842783000787130014C7B7FEC426832B47A78300F6C7B3FF
:2016C80000000693000784636990C0EF0007051302C12083028124030301011300008067A5
:2016D000FC01011302112E2302812C2304010413FCA42623FCB424230014C7B72B47A70309
:2016D800FEE4262300000713FCC42783FD4407130007059300078513D19FE0EFFCA42C237C
:2016E000FD84278300079863FCC427830117C783FCF42C23FD84278300078663FD8427836C
:2016E8003B80006FFCC4278300C7A783FC84270302E7F063FCC427830107C7830027F7930A
:2016F00000079863FCC4278300C7A783FCF42423FCC427830147A783FEF42223FE042023EE
:2016F800FCC42783FE04270300E7AA23FC84278324078663FD44278300A7D783009797939D
:20170000FEF42423FE44278306078463FC842783FFF78713FE84278302F75733FE4427835B
:20170800FFF78693FE84278302F6D7B304F76263FE442783FFF78713FE84278340F007B3B2
:2017100000F77733FCC4278300E7AA23FCC427830147A783FC84270340F707B3FCF424234C
:20171800FCC427830187A783FCF42E230840006FFCC427830087A783FCF42E23FDC42783D6
:2017200006079263FCC427830000059300078513B2DFC0EFFCA42E23FDC427030010079340
:2017280000F71C63FCC427830020071300E788A3002007932A40006FFDC42703FFF007936E
:2017300000F71C63FCC427830010071300E788A3001007932840006FFCC42783FDC42703A7
:2017380000E7A423FCC42783FDC4270300E7AC23FDC42783140784630D00006FFC84270345
:20174000FE84278340F707B3FCF42423FCC427830147A703FE84278300F70733FCC4278312
:2017480000E7AA23FCC427830107C7830027F79302078463FCC42783FDC4258300078513FE
:20175000A7DFC0EFFCA42E23FDC4278302079063FC0424230800006FFCC42783FDC425835B
:2017580000078513B58FC0EFFCA42E23FDC42703FFF0079300F71C63FCC427830010071370
:2017600000E788A3001007931D00006FFDC427030010079300E7FA63FD4427830147A783EB
:20176800FDC4270300F76C63FCC427830020071300E788A3002007931A00006FFCC427834D
:20177000FDC4270300E7AC23FC842703FE842783F2E7E6E3FCC427830147A703FC842783BA
:2017780000F70733FCC4278300E7AA23FC8427831FF7F79304078463FD442783FDC42583F2
:2017800000078513A4CFC0EFFEA42023FE04278300079C63FCC427830020071300E788A33B
:20178800002007931340006FFC8427830097D793FE04270300F707B3FEF42023FCC427831E
:201790000147A703FCC4278300C7A78302E7F663FCC427830147A703FCC4278300E7A62334
:20179800FCC427830107C7830407E7930FF7F713FCC4278300E78823FCC427830147A78308
:2017A0001FF7F7930C078863FCC4278301C7A783FE0427030CF70063FCC427830107C783E1
:2017A800018797934187D7930607D063FD4427830017C703FCC4278302878593FCC42783BC
:2017B00001C7A783001006930007861300070513A75FB0EF0005079300078C63FCC427831B
:2017B8000010071300E788A30010079306C0006FFCC427830107C78307F7F7930FF7F713A2
:2017C000FCC4278300E78823FD4427830017C703FCC427830287879300100693FE04260360
:2017C8000007859300070513959FB0EF0005079300078C63FCC427830010071300E788A3B5
:2017D000001007930140006FFCC42783FE04270300E7AE23FD842783000787130014C7B7F3
:2017D800FEC426832B47A78300F6C7B3000006930007846324D0C0EF0007051303C12083CA
:2017E000038124030401011300008067FD010113021126230281242303010413FCA42E23FA
:2017E800FCB42C230014C7B72B47A703FEE4262300000713FDC4278300079663009007935A
:2017F0000F40006FFE440713FD840793000006130007059300078513A00FE0EFFEA42423E6
:2017F800FE8427830A079E63FE442703FDC4278300E7A023FD84278300078593FDC42503DF
:20180000BC5FD0EFFEA42423FE84278308079063FDC4278302B7C783018797934187D79385
:201808000407C263FDC427830067C7830107F79302078663FE442703FDC4278301C7A78327
:201810000007859300070513FF1FC0EF00050713FDC4278300E7A42300C0006F005007935C
:20181800FEF42423FE84278302079263FE4427830067D703FDC4278300E792230000059381
:20182000FDC42503B01FC0EFFEA42423FE8427030040079300F7166300500793FEF424233F
:20182800FE84278300078663FDC427830007A023FE842783000787130014C7B7FEC4268385
:201830002B47A78300F6C7B300000693000784630F10C0EF0007051302C120830281240308
:201838000301011300008067FD010113021126230281242303010413FCA42E230014C7B7BB
:201840002B47A703FEE4262300000713FDC42783FE4407130007059300078513F74FE0EF0D
:20184800FEA42423FE84278300079663FDC427830007A023FE842783000787130014C7B7D7
:20185000FEC426832B47A78300F6C7B3000006930007846306D0C0EF0007051302C1208370
:20185800028124030301011300008067FD010113021126230281242303010413FCA42E2383
:20186000FCB42C230014C7B72B47A703FEE4262300000713FDC42783FE4407130007059310
:2018680000078513EECFE0EFFEA42423FE84278306079A63FD84278300079C63000005934D
:20187000FDC425039C1FC0EFFEA424230580006F00000593FDC42503F61FC0EFFEA42423FA
:20187800FE8427030040079300F71463FE042423FE84278302079863FD842583FDC42503D1
:20188000AC4FD0EF00000593FDC42503B35FC0EFFEA42423FE8427030040079300F714636F
:20188800FE042423FE842783000787130014C7B7FEC426832B47A78300F6C7B30000069388
:201890000007846377C0C0EF0007051302C12083028124030301011300008067FD01011324
:20189800021126230281242303010413FCA42E23FCB42C23FD842583FDC42503EF1FF0EF00
:2018A000FEA42623FEC4278304079663FD84278304078263FD8427830097C78302078C63AE
:2018A800FDC4278302C7A703FD842783009787930040069300000613000785930007051336
:2018B000C58FD0EF0005079300079463FA9FF06F00000013FEC427830007851302C12083EC
:2018B800028124030301011300008067FD010113021126230281242303010413FCA42E2323
:2018C000FCB42C23FCC42A23FCD42823FDC42783FD04270302E7A623FD442583FDC42503C7
:2018C800C6DFF0EFFEA42623FEC4278300079A63FD842583FDC42503F25FF0EFFEA42623F4
:2018D000FEC427830007851302C12083028124030301011300008067FA01011304112E2369
:2018D80004812C2306010413FAA42623FAB424230014C7B72B47A703FEE42623000007132F
:2018E000FBC40713FAC40793000006130007059300078513E45FD0EFFAA42C23FB84278348
:2018E80004079C63FAC42703FBC407930007059300078513811FD0EFFAA42C23FB842783E2
:2018F00002079C63FE744783018797934187D7930007D86300600793FAF42C2301C0006F07
:2018F800FA84278300078A63FBC40793FA842583000785138D0FD0EFFB8427830007871371
:201900000014C7B7FEC426832B47A78300F6C7B300000693000784635A80C0EF000705138F
:2019080005C12083058124030601011300008067FB01011304112623048124230501041350
:20191000FAA42E23FAB42C23FAC42A230014C7B72B47A703FEE4262300000713FC040713B3
:20191800FBC40793000006130007059300078513D69FD0EFFCA42223FC44278320079A63D8
:20192000FC042703FB44278300E7A023FC0427830107A703FC0427830147A783FFE7879372
:2019280000E7EC63FC0427830107A703FB84278300E7A0231DC0006FFC042423FC042783FD
:201930000007C7030010079308F7166300200793FCF42623FC042783FCF42E23FDC407936B
:20193800FCC4258300078513BD5FB0EFFCA42C23FD842703FFF0079300F71863001007938E
:20194000FCF422231540006FFD8427030010079300F7186300200793FCF4222313C0006F96
:20194800FD84278300079863FC84278300178793FCF42423FCC4278300178793FCF42623EC
:20195000FC0427830147A783FCC42703F8F768E31080006FFC0427830147A783FCF42623E3
:20195800FC0427830207A783FCF42823FC042A23FD44278302079663FC042683FD042783C9
:2019600000178713FCE4282300078593000685138ADFB0EFFCA42223FC4427830A079C63E7
:20196800FC0427830007C7030020079304F71063FC04278303078713FD44278300F707B3D2
:2019700000078513CB4FB0EF0005079300079863FC84278300178793FCF42423FD442783E1
:2019780000278793FCF42A230480006FFC04278303078713FD44278300F707B30007851355
:20198000CDCFB0EF00050713100007B7FFF7879300F777B300079863FC8427830017879391
:20198800FCF42423FD44278300478793FCF42A23FD4427831FF7F793FCF42A23FCC427834D
:20199000FFF78793FCF42623FCC42783F20792E30080006F00000013FC44278302079A6324
:20199800FB842783FC84270300E7A023FC042783FC84270300E7A823FC0427830057C703E1
:2019A000FC042783001767130FF7771300E782A3FC442783000787130014C7B7FEC42683C8
:2019A8002B47A78300F6C7B300000693000784633100C0EF0007051304C120830481240379
:2019B0000501011300008067FD010113021126230281242303010413FCA42E230014C7B740
:2019B8002B47A703FEE4262300000713FDC42783FE0407130007059300078513994FE0EF32
:2019C000FEA42223FE44278300079C63FDC427830117C783FEF42223FE442783000786634E
:2019C800FE4427831A40006FFDC427830107C7830027F793000796630070079318C0006F8B
:2019D000FDC427830147A703FDC4278300C7A78316F77A63FDC427830147A7830207986373
:2019D800FDC42703FDC427830087A783000006130007859300070513EE9FB0EFFEA422237E
:2019E000FDC427830007A4230840006FFDC42703FDC427830187A7830007859300070513B1
:2019E80091DFB0EFFEA42423FE042223FE842703FFF0079300F7166300100793FEF422231A
:2019F000FE8427030010079300F7166300200793FEF42223FE44278302079A63FE04278382
:2019F8000147A783FE84270302F77263FDC42703FDC427830187A78300078613FE84258311
:201A000000070513E5DFB0EFFEA42223FDC427830147A703FDC4278300E7A623FDC427837A
:201A08000107C7830407E7930FF7F713FDC4278300E78823FE44278306079663FDC427837D
:201A10000107C783018797934187D7930407DC63FE0427830017C703FDC42783028785939D
:201A1800FDC4278301C7A7830010069300078613000705138D0FB0EF00050793000788631D
:201A200000100793FEF4222301C0006FFDC427830107C78307F7F7930FF7F713FDC42783D5
:201A280000E78823FE44278300078E63FE4427830FF7F713FDC4278300E788A3FE442783C3
:201A30000080006FFE442783000787130014C7B7FEC426832B47A78300F6C7B30000069378
:201A3800000784630DC0C0EF0007051302C12083028124030301011300008067F7010113EA
:201A4000081126230881242309010413F6A42E230014C7B72B47A703FEE426230000071355
